{
  "_format": "hh-sol-artifact-1",
  "contractName": "BaeSensorRegistry",
  "sourceName": "contracts/BaeSensorRegistry.sol",
  "abi": [
    {
      "anonymous": false,
      "inputs": [
        {
          "indexed": true,
          "internalType": "string",
          "name": "deviceId",
          "type": "string"
        },
        {
          "indexed": false,
          "internalType": "uint256",
          "name": "timestamp",
          "type": "uint256"
        },
        {
          "indexed": false,
          "internalType": "uint256",
          "name": "blockNumber",
          "type": "uint256"
        },
        {
          "indexed": false,
          "internalType": "uint256",
          "name": "index",
          "type": "uint256"
        }
      ],
      "name": "SensorDataSubmitted",
      "type": "event"
    },
    {
      "inputs": [
        {
          "internalType": "uint256",
          "name": "",
          "type": "uint256"
        }
      ],
      "name": "allReadings",
      "outputs": [
        {
          "internalType": "string",
          "name": "deviceId",
          "type": "string"
        },
        {
          "internalType": "bytes",
          "name": "ciphertext",
          "type": "bytes"
        },
        {
          "internalType": "bytes",
          "name": "nonce",
          "type": "bytes"
        },
        {
          "internalType": "bytes",
          "name": "signature",
          "type": "bytes"
        },
        {
          "internalType": "uint256",
          "name": "timestamp",
          "type": "uint256"
        },
        {
          "internalType": "uint256",
          "name": "blockNumber",
          "type": "uint256"
        }
      ],
      "stateMutability": "view",
      "type": "function"
    },
    {
      "inputs": [
        {
          "internalType": "uint256",
          "name": "n",
          "type": "uint256"
        }
      ],
      "name": "getLastNReadings",
      "outputs": [
        {
          "components": [
            {
              "internalType": "string",
              "name": "deviceId",
              "type": "string"
            },
            {
              "internalType": "bytes",
              "name": "ciphertext",
              "type": "bytes"
            },
            {
              "internalType": "bytes",
              "name": "nonce",
              "type": "bytes"
            },
            {
              "internalType": "bytes",
              "name": "signature",
              "type": "bytes"
            },
            {
              "internalType": "uint256",
              "name": "timestamp",
              "type": "uint256"
            },
            {
              "internalType": "uint256",
              "name": "blockNumber",
              "type": "uint256"
            }
          ],
          "internalType": "struct BaeSensorRegistry.SensorData[]",
          "name": "",
          "type": "tuple[]"
        }
      ],
      "stateMutability": "view",
      "type": "function"
    },
    {
      "inputs": [],
      "name": "getLatestReading",
      "outputs": [
        {
          "components": [
            {
              "internalType": "string",
              "name": "deviceId",
              "type": "string"
            },
            {
              "internalType": "bytes",
              "name": "ciphertext",
              "type": "bytes"
            },
            {
              "internalType": "bytes",
              "name": "nonce",
              "type": "bytes"
            },
            {
              "internalType": "bytes",
              "name": "signature",
              "type": "bytes"
            },
            {
              "internalType": "uint256",
              "name": "timestamp",
              "type": "uint256"
            },
            {
              "internalType": "uint256",
              "name": "blockNumber",
              "type": "uint256"
            }
          ],
          "internalType": "struct BaeSensorRegistry.SensorData",
          "name": "",
          "type": "tuple"
        }
      ],
      "stateMutability": "view",
      "type": "function"
    },
    {
      "inputs": [
        {
          "internalType": "uint256",
          "name": "index",
          "type": "uint256"
        }
      ],
      "name": "getReading",
      "outputs": [
        {
          "components": [
            {
              "internalType": "string",
              "name": "deviceId",
              "type": "string"
            },
            {
              "internalType": "bytes",
              "name": "ciphertext",
              "type": "bytes"
            },
            {
              "internalType": "bytes",
              "name": "nonce",
              "type": "bytes"
            },
            {
              "internalType": "bytes",
              "name": "signature",
              "type": "bytes"
            },
            {
              "internalType": "uint256",
              "name": "timestamp",
              "type": "uint256"
            },
            {
              "internalType": "uint256",
              "name": "blockNumber",
              "type": "uint256"
            }
          ],
          "internalType": "struct BaeSensorRegistry.SensorData",
          "name": "",
          "type": "tuple"
        }
      ],
      "stateMutability": "view",
      "type": "function"
    },
    {
      "inputs": [],
      "name": "getReadingCount",
      "outputs": [
        {
          "internalType": "uint256",
          "name": "",
          "type": "uint256"
        }
      ],
      "stateMutability": "view",
      "type": "function"
    },
    {
      "inputs": [
        {
          "internalType": "string",
          "name": "deviceId",
          "type": "string"
        },
        {
          "internalType": "bytes",
          "name": "ciphertext",
          "type": "bytes"
        },
        {
          "internalType": "bytes",
          "name": "nonce",
          "type": "bytes"
        },
        {
          "internalType": "bytes",
          "name": "signature",
          "type": "bytes"
        },
        {
          "internalType": "uint256",
          "name": "timestamp",
          "type": "uint256"
        }
      ],
      "name": "submitSensorData",
      "outputs": [],
      "stateMutability": "nonpayable",
      "type": "function"
    },
    {
      "inputs": [],
      "name": "totalReadings",
      "outputs": [
        {
          "internalType": "uint256",
          "name": "",
          "type": "uint256"
        }
      ],
      "stateMutability": "view",
      "type": "function"
    }
  ],
  "bytecode": "0x608060405234801561001057600080fd5b50611386806100206000396000f3fe608060405234801561001057600080fd5b506004361061007c5760003560e01c80639e6fb4721161005b5780639e6fb472146100ef578063aa4e054614610106578063d6dd2f3d1461010e578063d734d1d51461011657600080fd5b806287a7881461008157806339bf8614146100aa57806367c5ece5146100cf575b600080fd5b61009461008f366004610e37565b61012b565b6040516100a19190610f23565b60405180910390f35b6100bd6100b8366004610e37565b610408565b6040516100a196959493929190610f3d565b6100e26100dd366004610e37565b610674565b6040516100a19190610fa0565b6100f860015481565b6040519081526020016100a1565b6100946109d6565b6000546100f8565b6101296101243660046110ae565b610cb5565b005b610133610e01565b60005482106101795760405162461bcd60e51b815260206004820152600d60248201526c092dcecc2d8d2c840d2dcc8caf609b1b60448201526064015b60405180910390fd5b6000828154811061018c5761018c61117a565b90600052602060002090600602016040518060c00160405290816000820180546101b590611190565b80601f01602080910402602001604051908101604052809291908181526020018280546101e190611190565b801561022e5780601f106102035761010080835404028352916020019161022e565b820191906000526020600020905b81548152906001019060200180831161021157829003601f168201915b5050505050815260200160018201805461024790611190565b80601f016020809104026020016040519081016040528092919081815260200182805461027390611190565b80156102c05780601f10610295576101008083540402835291602001916102c0565b820191906000526020600020905b8154815290600101906020018083116102a357829003601f168201915b505050505081526020016002820180546102d990611190565b80601f016020809104026020016040519081016040528092919081815260200182805461030590611190565b80156103525780601f1061032757610100808354040283529160200191610352565b820191906000526020600020905b81548152906001019060200180831161033557829003601f168201915b5050505050815260200160038201805461036b90611190565b80601f016020809104026020016040519081016040528092919081815260200182805461039790611190565b80156103e45780601f106103b9576101008083540402835291602001916103e4565b820191906000526020600020905b8154815290600101906020018083116103c757829003601f168201915b50505050508152602001600482015481526020016005820154815250509050919050565b6000818154811061041857600080fd5b906000526020600020906006020160009150905080600001805461043b90611190565b80601f016020809104026020016040519081016040528092919081815260200182805461046790611190565b80156104b45780601f10610489576101008083540402835291602001916104b4565b820191906000526020600020905b81548152906001019060200180831161049757829003601f168201915b5050505050908060010180546104c990611190565b80601f01602080910402602001604051908101604052809291908181526020018280546104f590611190565b80156105425780601f1061051757610100808354040283529160200191610542565b820191906000526020600020905b81548152906001019060200180831161052557829003601f168201915b50505050509080600201805461055790611190565b80601f016020809104026020016040519081016040528092919081815260200182805461058390611190565b80156105d05780601f106105a5576101008083540402835291602001916105d0565b820191906000526020600020905b8154815290600101906020018083116105b357829003601f168201915b5050505050908060030180546105e590611190565b80601f016020809104026020016040519081016040528092919081815260200182805461061190611190565b801561065e5780601f106106335761010080835404028352916020019161065e565b820191906000526020600020905b81548152906001019060200180831161064157829003601f168201915b5050505050908060040154908060050154905086565b60008054606091838210610688578361068a565b815b905060008167ffffffffffffffff8111156106a7576106a7611002565b6040519080825280602002602001820160405280156106e057816020015b6106cd610e01565b8152602001906001900390816106c55790505b50905060008584116106f35760006106fd565b6106fd86856111e0565b905060005b838110156109cb57600061071682846111f9565b815481106107265761072661117a565b90600052602060002090600602016040518060c001604052908160008201805461074f90611190565b80601f016020809104026020016040519081016040528092919081815260200182805461077b90611190565b80156107c85780601f1061079d576101008083540402835291602001916107c8565b820191906000526020600020905b8154815290600101906020018083116107ab57829003601f168201915b505050505081526020016001820180546107e190611190565b80601f016020809104026020016040519081016040528092919081815260200182805461080d90611190565b801561085a5780601f1061082f5761010080835404028352916020019161085a565b820191906000526020600020905b81548152906001019060200180831161083d57829003601f168201915b5050505050815260200160028201805461087390611190565b80601f016020809104026020016040519081016040528092919081815260200182805461089f90611190565b80156108ec5780601f106108c1576101008083540402835291602001916108ec565b820191906000526020600020905b8154815290600101906020018083116108cf57829003601f168201915b5050505050815260200160038201805461090590611190565b80601f016020809104026020016040519081016040528092919081815260200182805461093190611190565b801561097e5780601f106109535761010080835404028352916020019161097e565b820191906000526020600020905b81548152906001019060200180831161096157829003601f168201915b50505050508152602001600482015481526020016005820154815250508382815181106109ad576109ad61117a565b602002602001018190525080806109c39061120c565b915050610702565b509095945050505050565b6109de610e01565b600054610a1b5760405162461bcd60e51b815260206004820152600b60248201526a4e6f2072656164696e677360a81b6044820152606401610170565b60008054610a2b906001906111e0565b81548110610a3b57610a3b61117a565b90600052602060002090600602016040518060c0016040529081600082018054610a6490611190565b80601f0160208091040260200160405190810160405280929190818152602001828054610a9090611190565b8015610add5780601f10610ab257610100808354040283529160200191610add565b820191906000526020600020905b815481529060010190602001808311610ac057829003601f168201915b50505050508152602001600182018054610af690611190565b80601f0160208091040260200160405190810160405280929190818152602001828054610b2290611190565b8015610b6f5780601f10610b4457610100808354040283529160200191610b6f565b820191906000526020600020905b815481529060010190602001808311610b5257829003601f168201915b50505050508152602001600282018054610b8890611190565b80601f0160208091040260200160405190810160405280929190818152602001828054610bb490611190565b8015610c015780601f10610bd657610100808354040283529160200191610c01565b820191906000526020600020905b815481529060010190602001808311610be457829003601f168201915b50505050508152602001600382018054610c1a90611190565b80601f0160208091040260200160405190810160405280929190818152602001828054610c4690611190565b8015610c935780601f10610c6857610100808354040283529160200191610c93565b820191906000526020600020905b815481529060010190602001808311610c7657829003601f168201915b5050505050815260200160048201548152602001600582015481525050905090565b6040805160c0810182528681526020810186905290810184905260608101839052608081018290524360a082015260008054600181018255908052815182916006027f290decd9548b62a8d60345a988386fc84ba6bc95484008f6362f93160ef3e56301908190610d269082611274565b5060208201516001820190610d3b9082611274565b5060408201516002820190610d509082611274565b5060608201516003820190610d659082611274565b506080820151600482015560a09091015160059091015560008054610d8c906001906111e0565b600180549192506000610d9e8361120c565b919050555086604051610db19190611334565b60408051918290038220858352436020840152908201839052907f3ff7b81994374a5c226f473bb0ed1a108bb9a646a7041c9f855bf06177ec19ee9060600160405180910390a250505050505050565b6040518060c001604052806060815260200160608152602001606081526020016060815260200160008152602001600081525090565b600060208284031215610e4957600080fd5b5035919050565b60005b83811015610e6b578181015183820152602001610e53565b50506000910152565b60008151808452610e8c816020860160208601610e50565b601f01601f19169290920160200192915050565b6000815160c08452610eb560c0850182610e74565b905060208301518482036020860152610ece8282610e74565b91505060408301518482036040860152610ee88282610e74565b91505060608301518482036060860152610f028282610e74565b9150506080830151608085015260a083015160a08501528091505092915050565b602081526000610f366020830184610ea0565b9392505050565b60c081526000610f5060c0830189610e74565b8281036020840152610f628189610e74565b90508281036040840152610f768188610e74565b90508281036060840152610f8a8187610e74565b6080840195909552505060a00152949350505050565b6000602080830181845280855180835260408601915060408160051b870101925083870160005b82811015610ff557603f19888603018452610fe3858351610ea0565b94509285019290850190600101610fc7565b5092979650505050505050565b634e487b7160e01b600052604160045260246000fd5b600067ffffffffffffffff8084111561103357611033611002565b604051601f8501601f19908116603f0116810190828211818310171561105b5761105b611002565b8160405280935085815286868601111561107457600080fd5b858560208301376000602087830101525050509392505050565b600082601f83011261109f57600080fd5b610f3683833560208501611018565b600080600080600060a086880312156110c657600080fd5b853567ffffffffffffffff808211156110de57600080fd5b818801915088601f8301126110f257600080fd5b61110189833560208501611018565b9650602088013591508082111561111757600080fd5b61112389838a0161108e565b9550604088013591508082111561113957600080fd5b61114589838a0161108e565b9450606088013591508082111561115b57600080fd5b506111688882890161108e565b95989497509295608001359392505050565b634e487b7160e01b600052603260045260246000fd5b600181811c908216806111a457607f821691505b6020821081036111c457634e487b7160e01b600052602260045260246000fd5b50919050565b634e487b7160e01b600052601160045260246000fd5b818103818111156111f3576111f36111ca565b92915050565b808201808211156111f3576111f36111ca565b60006001820161121e5761121e6111ca565b5060010190565b601f82111561126f57600081815260208120601f850160051c8101602086101561124c5750805b601f850160051c820191505b8181101561126b57828155600101611258565b5050505b505050565b815167ffffffffffffffff81111561128e5761128e611002565b6112a28161129c8454611190565b84611225565b602080601f8311600181146112d757600084156112bf5750858301515b600019600386901b1c1916600185901b17855561126b565b600085815260208120601f198616915b82811015611306578886015182559484019460019091019084016112e7565b50858210156113245787850151600019600388901b60f8161c191681555b5050505050600190811b01905550565b60008251611346818460208701610e50565b919091019291505056fea2646970667358221220850acffa720ef82064e79ec5771b47961f03a2fd53533a1ea04d4ae4eda45e6164736f6c63430008140033",
  "linkReferences": {},
  "deployedLinkReferences": {}
}